:100800001209601208D77F817E0012093C7F3012E6
:10081000096A7F3112096A7F3212096A7F3312092D
:100820006A7F3412096A7F3412096A7F3512096AB5
:100830007F3612096A7F3712096A7F3812096A7F88
:100840003912096A7F5012096A7F4812096A7F5972
:1008500012096A7F3312096A7F3112096A7F3212E4
:10086000096A7F2C12096A7FC47E0012093C7F410D
:1008700012096A7F6412096A7F7612096A7F61121F
:10088000096A7F6E12096A7F6312096A7F6512091D
:100890006A7F6412096A7F2012096A7F4512096A19
:1008A0007F6C12096A7F6512096A7F6312096A7F89
:1008B0007412096A7F7212096A7F6F12096A7F6E69
:1008C00012096A7F6912096A7F6312096A7F7312CB
:0708D000096A12094680FECF
:0A096000E4F580F590F5A0F5B02253
:080915008FA0D2917F967E00B5
:10091D00E4FDFCC3ED9FEE6480F8EC648098500715
:07092D000DBD00010C80EC80
:0109340022A0
:0A096A00D290120915C29102091D76
:0709350012091D7F307E0056
:0A093C00C290120915C29102091DB4
:1008D7007F987E3A1209357F947E111209357F2C55
:1008E7007E0112091D7F301E12093C7F8A7E02128B
:1008F700091D7F387E0012093C7F0C7E0012093CDF
:0E0907007F017E0012093C7F067E0002093C43
:0E0946007F027E0012093C7FDC7E0502091D47
:030000000209549E
:0C095400787FE4F6D8FD758107020800EA
:00000001FF
