:1008650012088675B0FFD295D293D294C294D294D1
:100875002095FDC29385B008AF08120800D2938079
:01088500EB87
:07083E001208B17F0A7E00E1
:10084500E4FDFCC3ED9FEC9E5015E4FBFA0BBB00E9
:0F085500010ABA04F8BBFBF50DBD00010C80E4ED
:010864002271
:10089F008F80C292C291D2907F027E00120845C211
:0208AF00902295
:100886007F3812089F7F0E12089F7F0112089F7FF4
:090896000612089F7F8002089FF2
:1008B1008F80D292C291D2907F027E00120845C2EF
:0208C100902283
:10080000EF75F00A84FEEF75F00A84E5F02430FD00
:10081000EE75F00A84E5F02430F509EE75F00A84EF
:100820002430F9AF0512083EAF0912083EAF01129D
:0E083000083E7F201208B17FC87E00020845F6
:030000000208C330
:0C08C300787FE4F6D8FD75810902086515
:00000001FF
