:100800001209D412094B7F817E001209B07F301289
:1008100009DE7F311209DE7F321209DE7F331209D1
:10082000DE7F341209DE7F341209DE7F351209DEE5
:100830007F361209DE7F371209DE7F381209DE7F2C
:10084000391209DE7F201209DE7F501209DE7F484F
:100850001209DE7F591209DE7F331209DE7F311261
:1008600009DE7F321209DE7F2C1209DE7FC07E0096
:100870001209B07F411209DE7F641209DE7F761211
:1008800009DE7F611209DE7F6E1209DE7F631209C5
:10089000DE7F651209DE7F641209DE7F017E0012B1
:1008A00009B07F817E001209B07F451209DE7F6C9E
:1008B0001209DE7F651209DE7F631209DE7F741282
:1008C00009DE7F721209DE7F6F1209DE7F6E120968
:1008D000DE7F691209DE7F631209DE7F731209DE93
:1008E0007F201209DE7F611209DE7F6E1209DE7F32
:1008F000641209DE7FC07E001209B07F491209DE52
:100900007F6E1209DE7F731209DE7F741209DE7FAB
:10091000721209DE7F751209DE7F6D1209DE7F65B6
:100920001209DE7F6E1209DE7F741209DE7F61120A
:1009300009DE7F741209DE7F691209DE7F6F1209FA
:0B094000DE7F6E1209DE1209BA80FE95
:0A09D400E4F580F590F5A0F5B022DF
:080989008FA0D2917F967E0041
:10099100E4FDFCC3ED9FEE6480F8EC6480985007A1
:0709A1000DBD00010C80EC0C
:0109A800222C
:0A09DE00D290120989C2910209911A
:0709A9001209917F307E006E
:0A09B000C290120989C29102099158
:10094B007F987E3A1209A97F947E111209A97F2CF8
:10095B007E011209917F301E1209B07F8A7E02122E
:10096B0009917F387E001209B07F0C7E001209B00E
:0E097B007F017E001209B07F067E000209B0E7
:0E09BA007F027E001209B07FDC7E05020991EB
:030000000209C82A
:0C09C800787FE4F6D8FD75810702080076
:00000001FF
